{
  "contractName": "FgaiaToken",
  "abi": [
    {
      "constant": true,
      "inputs": [],
      "name": "totalSupply",
      "outputs": [
        {
          "name": "",
          "type": "uint256"
        }
      ],
      "payable": false,
      "stateMutability": "view",
      "type": "function"
    },
    {
      "inputs": [],
      "payable": false,
      "stateMutability": "nonpayable",
      "type": "constructor"
    }
  ],
  "bytecode": "0x608060405234801561001057600080fd5b50633b9aca00600081905550609e8061002a6000396000f300608060405260043610603f576000357c0100000000000000000000000000000000000000000000000000000000900463ffffffff16806318160ddd146044575b600080fd5b348015604f57600080fd5b506056606c565b6040518082815260200191505060405180910390f35b600054815600a165627a7a723058201294a6219f95715f4a6fb57d3000b5b0db15871d17f12d5894939fad3f3e5b670029",
  "source": "pragma solidity ^0.4.2;\n\ncontract FgaiaToken{\n    //Constructor\n    //Set the total number of tokens\n    //read the total number of tokens\n    uint256 public totalSupply;\n    \n    function FgaiaToken() public {\n        totalSupply = 1000000000;\n\n    }\n}",
  "sourcePath": "/Users/Derek/FightforGaiaToken/contracts/FgaiaToken.sol",
  "compiler": {
    "name": "solc",
    "version": "0.4.24+commit.e67f0147.Emscripten.clang"
  },
  "schemaVersion": "2.0.1",
  "updatedAt": "2018-07-30T14:14:24.038Z"
}